{
  "_format": "hh-sol-artifact-1",
  "contractName": "pLBM",
  "sourceName": "contracts/pLBM.sol",
  "abi": [
    {
      "inputs": [
        {
          "internalType": "address",
          "name": "_usdt",
          "type": "address"
        }
      ],
      "stateMutability": "nonpayable",
      "type": "constructor"
    },
    {
      "inputs": [
        {
          "internalType": "address",
          "name": "spender",
          "type": "address"
        },
        {
          "internalType": "uint256",
          "name": "allowance",
          "type": "uint256"
        },
        {
          "internalType": "uint256",
          "name": "needed",
          "type": "uint256"
        }
      ],
      "name": "ERC20InsufficientAllowance",
      "type": "error"
    },
    {
      "inputs": [
        {
          "internalType": "address",
          "name": "sender",
          "type": "address"
        },
        {
          "internalType": "uint256",
          "name": "balance",
          "type": "uint256"
        },
        {
          "internalType": "uint256",
          "name": "needed",
          "type": "uint256"
        }
      ],
      "name": "ERC20InsufficientBalance",
      "type": "error"
    },
    {
      "inputs": [
        {
          "internalType": "address",
          "name": "approver",
          "type": "address"
        }
      ],
      "name": "ERC20InvalidApprover",
      "type": "error"
    },
    {
      "inputs": [
        {
          "internalType": "address",
          "name": "receiver",
          "type": "address"
        }
      ],
      "name": "ERC20InvalidReceiver",
      "type": "error"
    },
    {
      "inputs": [
        {
          "internalType": "address",
          "name": "sender",
          "type": "address"
        }
      ],
      "name": "ERC20InvalidSender",
      "type": "error"
    },
    {
      "inputs": [
        {
          "internalType": "address",
          "name": "spender",
          "type": "address"
        }
      ],
      "name": "ERC20InvalidSpender",
      "type": "error"
    },
    {
      "inputs": [],
      "name": "EnforcedPause",
      "type": "error"
    },
    {
      "inputs": [],
      "name": "ExpectedPause",
      "type": "error"
    },
    {
      "inputs": [
        {
          "internalType": "address",
          "name": "owner",
          "type": "address"
        }
      ],
      "name": "OwnableInvalidOwner",
      "type": "error"
    },
    {
      "inputs": [
        {
          "internalType": "address",
          "name": "account",
          "type": "address"
        }
      ],
      "name": "OwnableUnauthorizedAccount",
      "type": "error"
    },
    {
      "anonymous": false,
      "inputs": [
        {
          "indexed": true,
          "internalType": "address",
          "name": "owner",
          "type": "address"
        },
        {
          "indexed": true,
          "internalType": "address",
          "name": "spender",
          "type": "address"
        },
        {
          "indexed": false,
          "internalType": "uint256",
          "name": "value",
          "type": "uint256"
        }
      ],
      "name": "Approval",
      "type": "event"
    },
    {
      "anonymous": false,
      "inputs": [
        {
          "indexed": true,
          "internalType": "address",
          "name": "previousOwner",
          "type": "address"
        },
        {
          "indexed": true,
          "internalType": "address",
          "name": "newOwner",
          "type": "address"
        }
      ],
      "name": "OwnershipTransferred",
      "type": "event"
    },
    {
      "anonymous": false,
      "inputs": [
        {
          "indexed": false,
          "internalType": "address",
          "name": "account",
          "type": "address"
        }
      ],
      "name": "Paused",
      "type": "event"
    },
    {
      "anonymous": false,
      "inputs": [
        {
          "indexed": false,
          "internalType": "enum pLBM.SaleStage",
          "name": "previousStage",
          "type": "uint8"
        },
        {
          "indexed": false,
          "internalType": "enum pLBM.SaleStage",
          "name": "currentStage",
          "type": "uint8"
        }
      ],
      "name": "StageProgressed",
      "type": "event"
    },
    {
      "anonymous": false,
      "inputs": [
        {
          "indexed": true,
          "internalType": "address",
          "name": "from",
          "type": "address"
        },
        {
          "indexed": true,
          "internalType": "address",
          "name": "to",
          "type": "address"
        },
        {
          "indexed": false,
          "internalType": "uint256",
          "name": "value",
          "type": "uint256"
        }
      ],
      "name": "Transfer",
      "type": "event"
    },
    {
      "anonymous": false,
      "inputs": [
        {
          "indexed": false,
          "internalType": "address",
          "name": "account",
          "type": "address"
        }
      ],
      "name": "Unpaused",
      "type": "event"
    },
    {
      "inputs": [],
      "name": "advanceToNextStage",
      "outputs": [],
      "stateMutability": "nonpayable",
      "type": "function"
    },
    {
      "inputs": [
        {
          "internalType": "address",
          "name": "owner",
          "type": "address"
        },
        {
          "internalType": "address",
          "name": "spender",
          "type": "address"
        }
      ],
      "name": "allowance",
      "outputs": [
        {
          "internalType": "uint256",
          "name": "",
          "type": "uint256"
        }
      ],
      "stateMutability": "view",
      "type": "function"
    },
    {
      "inputs": [
        {
          "internalType": "address",
          "name": "spender",
          "type": "address"
        },
        {
          "internalType": "uint256",
          "name": "value",
          "type": "uint256"
        }
      ],
      "name": "approve",
      "outputs": [
        {
          "internalType": "bool",
          "name": "",
          "type": "bool"
        }
      ],
      "stateMutability": "nonpayable",
      "type": "function"
    },
    {
      "inputs": [
        {
          "internalType": "address",
          "name": "account",
          "type": "address"
        }
      ],
      "name": "balanceOf",
      "outputs": [
        {
          "internalType": "uint256",
          "name": "",
          "type": "uint256"
        }
      ],
      "stateMutability": "view",
      "type": "function"
    },
    {
      "inputs": [
        {
          "internalType": "uint256",
          "name": "amount",
          "type": "uint256"
        }
      ],
      "name": "buy",
      "outputs": [],
      "stateMutability": "nonpayable",
      "type": "function"
    },
    {
      "inputs": [],
      "name": "currentStage",
      "outputs": [
        {
          "internalType": "enum pLBM.SaleStage",
          "name": "",
          "type": "uint8"
        }
      ],
      "stateMutability": "view",
      "type": "function"
    },
    {
      "inputs": [],
      "name": "decimals",
      "outputs": [
        {
          "internalType": "uint8",
          "name": "",
          "type": "uint8"
        }
      ],
      "stateMutability": "view",
      "type": "function"
    },
    {
      "inputs": [
        {
          "internalType": "uint256",
          "name": "amount",
          "type": "uint256"
        },
        {
          "internalType": "string",
          "name": "round",
          "type": "string"
        }
      ],
      "name": "increaseTokenSupply",
      "outputs": [],
      "stateMutability": "nonpayable",
      "type": "function"
    },
    {
      "inputs": [
        {
          "internalType": "address",
          "name": "investor",
          "type": "address"
        },
        {
          "internalType": "uint256",
          "name": "amount",
          "type": "uint256"
        }
      ],
      "name": "mintToInvestor",
      "outputs": [],
      "stateMutability": "nonpayable",
      "type": "function"
    },
    {
      "inputs": [
        {
          "internalType": "uint256",
          "name": "_publicOneCap",
          "type": "uint256"
        }
      ],
      "name": "modifyPublicOneCap",
      "outputs": [],
      "stateMutability": "nonpayable",
      "type": "function"
    },
    {
      "inputs": [
        {
          "internalType": "uint256",
          "name": "_publicTwoCap",
          "type": "uint256"
        }
      ],
      "name": "modifyPublicTwoCap",
      "outputs": [],
      "stateMutability": "nonpayable",
      "type": "function"
    },
    {
      "inputs": [],
      "name": "name",
      "outputs": [
        {
          "internalType": "string",
          "name": "",
          "type": "string"
        }
      ],
      "stateMutability": "view",
      "type": "function"
    },
    {
      "inputs": [],
      "name": "owner",
      "outputs": [
        {
          "internalType": "address",
          "name": "",
          "type": "address"
        }
      ],
      "stateMutability": "view",
      "type": "function"
    },
    {
      "inputs": [],
      "name": "pause",
      "outputs": [],
      "stateMutability": "nonpayable",
      "type": "function"
    },
    {
      "inputs": [],
      "name": "paused",
      "outputs": [
        {
          "internalType": "bool",
          "name": "",
          "type": "bool"
        }
      ],
      "stateMutability": "view",
      "type": "function"
    },
    {
      "inputs": [],
      "name": "publicOneCap",
      "outputs": [
        {
          "internalType": "uint256",
          "name": "",
          "type": "uint256"
        }
      ],
      "stateMutability": "view",
      "type": "function"
    },
    {
      "inputs": [],
      "name": "publicOnePrice",
      "outputs": [
        {
          "internalType": "uint256",
          "name": "",
          "type": "uint256"
        }
      ],
      "stateMutability": "view",
      "type": "function"
    },
    {
      "inputs": [],
      "name": "publicOneTokensRemaining",
      "outputs": [
        {
          "internalType": "uint256",
          "name": "",
          "type": "uint256"
        }
      ],
      "stateMutability": "view",
      "type": "function"
    },
    {
      "inputs": [],
      "name": "publicTwoCap",
      "outputs": [
        {
          "internalType": "uint256",
          "name": "",
          "type": "uint256"
        }
      ],
      "stateMutability": "view",
      "type": "function"
    },
    {
      "inputs": [],
      "name": "publicTwoPrice",
      "outputs": [
        {
          "internalType": "uint256",
          "name": "",
          "type": "uint256"
        }
      ],
      "stateMutability": "view",
      "type": "function"
    },
    {
      "inputs": [],
      "name": "publicTwoTokensRemaining",
      "outputs": [
        {
          "internalType": "uint256",
          "name": "",
          "type": "uint256"
        }
      ],
      "stateMutability": "view",
      "type": "function"
    },
    {
      "inputs": [
        {
          "internalType": "uint256",
          "name": "amount",
          "type": "uint256"
        },
        {
          "internalType": "string",
          "name": "round",
          "type": "string"
        }
      ],
      "name": "reduceTokenSupply",
      "outputs": [],
      "stateMutability": "nonpayable",
      "type": "function"
    },
    {
      "inputs": [],
      "name": "renounceOwnership",
      "outputs": [],
      "stateMutability": "nonpayable",
      "type": "function"
    },
    {
      "inputs": [],
      "name": "revertToPreviousStage",
      "outputs": [],
      "stateMutability": "nonpayable",
      "type": "function"
    },
    {
      "inputs": [],
      "name": "symbol",
      "outputs": [
        {
          "internalType": "string",
          "name": "",
          "type": "string"
        }
      ],
      "stateMutability": "view",
      "type": "function"
    },
    {
      "inputs": [],
      "name": "totalSupply",
      "outputs": [
        {
          "internalType": "uint256",
          "name": "",
          "type": "uint256"
        }
      ],
      "stateMutability": "view",
      "type": "function"
    },
    {
      "inputs": [
        {
          "internalType": "address",
          "name": "to",
          "type": "address"
        },
        {
          "internalType": "uint256",
          "name": "value",
          "type": "uint256"
        }
      ],
      "name": "transfer",
      "outputs": [
        {
          "internalType": "bool",
          "name": "",
          "type": "bool"
        }
      ],
      "stateMutability": "nonpayable",
      "type": "function"
    },
    {
      "inputs": [
        {
          "internalType": "address",
          "name": "from",
          "type": "address"
        },
        {
          "internalType": "address",
          "name": "to",
          "type": "address"
        },
        {
          "internalType": "uint256",
          "name": "value",
          "type": "uint256"
        }
      ],
      "name": "transferFrom",
      "outputs": [
        {
          "internalType": "bool",
          "name": "",
          "type": "bool"
        }
      ],
      "stateMutability": "nonpayable",
      "type": "function"
    },
    {
      "inputs": [
        {
          "internalType": "address",
          "name": "newOwner",
          "type": "address"
        }
      ],
      "name": "transferOwnership",
      "outputs": [],
      "stateMutability": "nonpayable",
      "type": "function"
    },
    {
      "inputs": [],
      "name": "unpause",
      "outputs": [],
      "stateMutability": "nonpayable",
      "type": "function"
    },
    {
      "inputs": [],
      "name": "usdt",
      "outputs": [
        {
          "internalType": "contract IERC20",
          "name": "",
          "type": "address"
        }
      ],
      "stateMutability": "view",
      "type": "function"
    },
    {
      "inputs": [],
      "name": "withdrawAllFunds",
      "outputs": [],
      "stateMutability": "nonpayable",
      "type": "function"
    }
  ],
  "bytecode": "0x60806040526a034f086f3b33b6840000006007556a04f68ca6d8cd91c6000000600855600754600955600854600a55620101d0600b5562011940600c556000600d60006101000a81548160ff02191690836004811115620000655762000064620002e0565b5b02179055503480156200007757600080fd5b50604051620030743803806200307483398181016040528101906200009d919062000379565b336040518060400160405280600481526020017f704c424d000000000000000000000000000000000000000000000000000000008152506040518060400160405280600481526020017f704c424d0000000000000000000000000000000000000000000000000000000081525081600390816200011b919062000625565b5080600490816200012d919062000625565b5050506000600560006101000a81548160ff021916908315150217905550600073ffffffffffffffffffffffffffffffffffffffff168173ffffffffffffffffffffffffffffffffffffffff1603620001c05760006040517f1e4fbdf7000000000000000000000000000000000000000000000000000000008152600401620001b791906200071d565b60405180910390fd5b620001d1816200021a60201b60201c565b5080600660006101000a81548173ffffffffffffffffffffffffffffffffffffffff021916908373ffffffffffffffffffffffffffffffffffffffff160217905550506200073a565b6000600560019054906101000a900473ffffffffffffffffffffffffffffffffffffffff16905081600560016101000a81548173ffffffffffffffffffffffffffffffffffffffff021916908373ffffffffffffffffffffffffffffffffffffffff1602179055508173ffffffffffffffffffffffffffffffffffffffff168173ffffffffffffffffffffffffffffffffffffffff167f8be0079c531659141344cd1fd0a4f28419497f9722a3daafe3b4186f6b6457e060405160405180910390a35050565b7f4e487b7100000000000000000000000000000000000000000000000000000000600052602160045260246000fd5b600080fd5b600073ffffffffffffffffffffffffffffffffffffffff82169050919050565b6000620003418262000314565b9050919050565b620003538162000334565b81146200035f57600080fd5b50565b600081519050620003738162000348565b92915050565b6000602082840312156200039257620003916200030f565b5b6000620003a28482850162000362565b91505092915050565b600081519050919050565b7f4e487b7100000000000000000000000000000000000000000000000000000000600052604160045260246000fd5b7f4e487b7100000000000000000000000000000000000000000000000000000000600052602260045260246000fd5b600060028204905060018216806200042d57607f821691505b602082108103620004435762000442620003e5565b5b50919050565b60008190508160005260206000209050919050565b60006020601f8301049050919050565b600082821b905092915050565b600060088302620004ad7fffffffffffffffffffffffffffffffffffffffffffffffffffffffffffffffff826200046e565b620004b986836200046e565b95508019841693508086168417925050509392505050565b6000819050919050565b6000819050919050565b60006200050662000500620004fa84620004d1565b620004db565b620004d1565b9050919050565b6000819050919050565b6200052283620004e5565b6200053a62000531826200050d565b8484546200047b565b825550505050565b600090565b6200055162000542565b6200055e81848462000517565b505050565b5b8181101562000586576200057a60008262000547565b60018101905062000564565b5050565b601f821115620005d5576200059f8162000449565b620005aa846200045e565b81016020851015620005ba578190505b620005d2620005c9856200045e565b83018262000563565b50505b505050565b600082821c905092915050565b6000620005fa60001984600802620005da565b1980831691505092915050565b6000620006158383620005e7565b9150826002028217905092915050565b6200063082620003ab565b67ffffffffffffffff8111156200064c576200064b620003b6565b5b62000658825462000414565b620006658282856200058a565b600060209050601f8311600181146200069d576000841562000688578287015190505b62000694858262000607565b86555062000704565b601f198416620006ad8662000449565b60005b82811015620006d757848901518255600182019150602085019450602081019050620006b0565b86831015620006f75784890151620006f3601f891682620005e7565b8355505b6001600288020188555050505b505050505050565b620007178162000334565b82525050565b60006020820190506200073460008301846200070c565b92915050565b61292a806200074a6000396000f3fe608060405234801561001057600080fd5b50600436106101f05760003560e01c80636fb02e231161010f5780638f2af102116100a2578063d96a094a11610071578063d96a094a14610505578063dd62ed3e14610521578063e127386c14610551578063f2fde38b1461056d576101f0565b80638f2af1021461047d57806395d89b411461049b578063a15c6676146104b9578063a9059cbb146104d5576101f0565b80638456cb59116100de5780638456cb591461042f578063887741b2146104395780638ba65528146104435780638da5cb5b1461045f576101f0565b80636fb02e23146103bd57806370a08231146103d9578063715018a61461040957806379d1f05b14610413576101f0565b806344c65e62116101875780635bf5d54c116101565780635bf5d54c146103595780635c975abb1461037757806363d030a914610395578063679b1ad1146103b3576101f0565b806344c65e62146102f557806349649fbf1461031357806351be53c91461031d5780635255d03a1461033b576101f0565b806328722810116101c357806328722810146102915780632f48ab7d146102af578063313ce567146102cd5780633f4ba83a146102eb576101f0565b806306fdde03146101f5578063095ea7b31461021357806318160ddd1461024357806323b872dd14610261575b600080fd5b6101fd610589565b60405161020a9190611d84565b60405180910390f35b61022d60048036038101906102289190611e4e565b61061b565b60405161023a9190611ea9565b60405180910390f35b61024b61063e565b6040516102589190611ed3565b60405180910390f35b61027b60048036038101906102769190611eee565b610648565b6040516102889190611ea9565b60405180910390f35b610299610677565b6040516102a69190611ed3565b60405180910390f35b6102b761067d565b6040516102c49190611fa0565b60405180910390f35b6102d56106a3565b6040516102e29190611fd7565b60405180910390f35b6102f36106ac565b005b6102fd6106be565b60405161030a9190611ed3565b60405180910390f35b61031b6106c4565b005b610325610848565b6040516103329190611ed3565b60405180910390f35b61034361084e565b6040516103509190611ed3565b60405180910390f35b610361610854565b60405161036e9190612069565b60405180910390f35b61037f610867565b60405161038c9190611ea9565b60405180910390f35b61039d61087e565b6040516103aa9190611ed3565b60405180910390f35b6103bb610884565b005b6103d760048036038101906103d29190612084565b6109c9565b005b6103f360048036038101906103ee91906120b1565b6109db565b6040516104009190611ed3565b60405180910390f35b610411610a23565b005b61042d60048036038101906104289190612213565b610a37565b005b610437610b04565b005b610441610b16565b005b61045d60048036038101906104589190612084565b610c5c565b005b610467610c6e565b604051610474919061227e565b60405180910390f35b610485610c98565b6040516104929190611ed3565b60405180910390f35b6104a3610c9e565b6040516104b09190611d84565b60405180910390f35b6104d360048036038101906104ce9190611e4e565b610d30565b005b6104ef60048036038101906104ea9190611e4e565b610d46565b6040516104fc9190611ea9565b60405180910390f35b61051f600480360381019061051a9190612084565b610d69565b005b61053b60048036038101906105369190612299565b61120d565b6040516105489190611ed3565b60405180910390f35b61056b60048036038101906105669190612213565b611294565b005b610587600480360381019061058291906120b1565b611361565b005b60606003805461059890612308565b80601f01602080910402602001604051908101604052809291908181526020018280546105c490612308565b80156106115780601f106105e657610100808354040283529160200191610611565b820191906000526020600020905b8154815290600101906020018083116105f457829003601f168201915b5050505050905090565b6000806106266113e7565b90506106338185856113ef565b600191505092915050565b6000600254905090565b6000806106536113e7565b9050610660858285611401565b61066b858585611495565b60019150509392505050565b600a5481565b600660009054906101000a900473ffffffffffffffffffffffffffffffffffffffff1681565b60006012905090565b6106b4611589565b6106bc611610565b565b600b5481565b6106cc611589565b600660009054906101000a900473ffffffffffffffffffffffffffffffffffffffff1673ffffffffffffffffffffffffffffffffffffffff1663a9059cbb33600660009054906101000a900473ffffffffffffffffffffffffffffffffffffffff1673ffffffffffffffffffffffffffffffffffffffff166370a08231306040518263ffffffff1660e01b8152600401610766919061227e565b602060405180830381865afa158015610783573d6000803e3d6000fd5b505050506040513d601f19601f820116820180604052508101906107a7919061234e565b6040518363ffffffff1660e01b81526004016107c492919061237b565b6020604051808303816000875af11580156107e3573d6000803e3d6000fd5b505050506040513d601f19601f8201168201806040525081019061080791906123d0565b610846576040517f08c379a000000000000000000000000000000000000000000000000000000000815260040161083d90612449565b60405180910390fd5b565b60085481565b60075481565b600d60009054906101000a900460ff1681565b6000600560009054906101000a900460ff16905090565b60095481565b61088c611589565b60048081111561089f5761089e611ff2565b5b600d60009054906101000a900460ff1660048111156108c1576108c0611ff2565b5b03610901576040517f08c379a00000000000000000000000000000000000000000000000000000000081526004016108f8906124b5565b60405180910390fd5b6000600d60009054906101000a900460ff1690506001600d60009054906101000a900460ff16600481111561093957610938611ff2565b5b6109439190612504565b600481111561095557610954611ff2565b5b600d60006101000a81548160ff0219169083600481111561097957610978611ff2565b5b02179055507ff3f787841a3a0957fb0240a97063270279209e5092e043c90433e0b4c62ddbeb81600d60009054906101000a900460ff166040516109be929190612538565b60405180910390a150565b6109d1611589565b80600a8190555050565b60008060008373ffffffffffffffffffffffffffffffffffffffff1673ffffffffffffffffffffffffffffffffffffffff168152602001908152602001600020549050919050565b610a2b611589565b610a356000611673565b565b610a3f611589565b610a7e816040518060400160405280600981526020017f7075626c69634f6e650000000000000000000000000000000000000000000000815250611739565b15610aa1578160076000828254610a959190612561565b92505081905550610b00565b610ae0816040518060400160405280600981526020017f7075626c696354776f0000000000000000000000000000000000000000000000815250611739565b15610aff578160086000828254610af79190612561565b925050819055505b5b5050565b610b0c611589565b610b14611792565b565b610b1e611589565b60006004811115610b3257610b31611ff2565b5b600d60009054906101000a900460ff166004811115610b5457610b53611ff2565b5b03610b94576040517f08c379a0000000000000000000000000000000000000000000000000000000008152600401610b8b906125e1565b60405180910390fd5b6000600d60009054906101000a900460ff1690506001600d60009054906101000a900460ff166004811115610bcc57610bcb611ff2565b5b610bd69190612561565b6004811115610be857610be7611ff2565b5b600d60006101000a81548160ff02191690836004811115610c0c57610c0b611ff2565b5b02179055507ff3f787841a3a0957fb0240a97063270279209e5092e043c90433e0b4c62ddbeb81600d60009054906101000a900460ff16604051610c51929190612538565b60405180910390a150565b610c64611589565b8060098190555050565b6000600560019054906101000a900473ffffffffffffffffffffffffffffffffffffffff16905090565b600c5481565b606060048054610cad90612308565b80601f0160208091040260200160405190810160405280929190818152602001828054610cd990612308565b8015610d265780601f10610cfb57610100808354040283529160200191610d26565b820191906000526020600020905b815481529060010190602001808311610d0957829003601f168201915b5050505050905090565b610d38611589565b610d4282826117f5565b5050565b600080610d516113e7565b9050610d5e818585611495565b600191505092915050565b600d60009054906101000a900460ff1660016004811115610d8d57610d8c611ff2565b5b600d60009054906101000a900460ff166004811115610daf57610dae611ff2565b5b1480610dee575060036004811115610dca57610dc9611ff2565b5b600d60009054906101000a900460ff166004811115610dec57610deb611ff2565b5b145b610e2d576040517f08c379a0000000000000000000000000000000000000000000000000000000008152600401610e2490612673565b60405180910390fd5b610e35611877565b60016004811115610e4957610e48611ff2565b5b600d60009054906101000a900460ff166004811115610e6b57610e6a611ff2565b5b0361101f57816007541015610eb5576040517f08c379a0000000000000000000000000000000000000000000000000000000008152600401610eac90612705565b60405180910390fd5b600954821115610efa576040517f08c379a0000000000000000000000000000000000000000000000000000000008152600401610ef190612771565b60405180910390fd5b600660009054906101000a900473ffffffffffffffffffffffffffffffffffffffff1673ffffffffffffffffffffffffffffffffffffffff166323b872dd3330670de0b6b3a7640000600b5487610f519190612791565b610f5b9190612802565b6040518463ffffffff1660e01b8152600401610f7993929190612833565b6020604051808303816000875af1158015610f98573d6000803e3d6000fd5b505050506040513d601f19601f82011682018060405250810190610fbc91906123d0565b610ffb576040517f08c379a0000000000000000000000000000000000000000000000000000000008152600401610ff290612449565b60405180910390fd5b816007600082825461100d9190612561565b9250508190555061101e33836117f5565b5b6003600481111561103357611032611ff2565b5b600d60009054906101000a900460ff16600481111561105557611054611ff2565b5b036112095781600854101561109f576040517f08c379a000000000000000000000000000000000000000000000000000000000815260040161109690612705565b60405180910390fd5b600a548211156110e4576040517f08c379a00000000000000000000000000000000000000000000000000000000081526004016110db90612771565b60405180910390fd5b600660009054906101000a900473ffffffffffffffffffffffffffffffffffffffff1673ffffffffffffffffffffffffffffffffffffffff166323b872dd3330670de0b6b3a7640000600c548761113b9190612791565b6111459190612802565b6040518463ffffffff1660e01b815260040161116393929190612833565b6020604051808303816000875af1158015611182573d6000803e3d6000fd5b505050506040513d601f19601f820116820180604052508101906111a691906123d0565b6111e5576040517f08c379a00000000000000000000000000000000000000000000000000000000081526004016111dc90612449565b60405180910390fd5b81600860008282546111f79190612561565b9250508190555061120833836117f5565b5b5050565b6000600160008473ffffffffffffffffffffffffffffffffffffffff1673ffffffffffffffffffffffffffffffffffffffff16815260200190815260200160002060008373ffffffffffffffffffffffffffffffffffffffff1673ffffffffffffffffffffffffffffffffffffffff16815260200190815260200160002054905092915050565b61129c611589565b6112db816040518060400160405280600981526020017f7075626c69634f6e650000000000000000000000000000000000000000000000815250611739565b156112fe5781600760008282546112f29190612504565b9250508190555061135d565b61133d816040518060400160405280600981526020017f7075626c696354776f0000000000000000000000000000000000000000000000815250611739565b1561135c5781600860008282546113549190612504565b925050819055505b5b5050565b611369611589565b600073ffffffffffffffffffffffffffffffffffffffff168173ffffffffffffffffffffffffffffffffffffffff16036113db5760006040517f1e4fbdf70000000000000000000000000000000000000000000000000000000081526004016113d2919061227e565b60405180910390fd5b6113e481611673565b50565b600033905090565b6113fc83838360016118b8565b505050565b600061140d848461120d565b90507fffffffffffffffffffffffffffffffffffffffffffffffffffffffffffffffff811461148f578181101561147f578281836040517ffb8f41b20000000000000000000000000000000000000000000000000000000081526004016114769392919061286a565b60405180910390fd5b61148e848484840360006118b8565b5b50505050565b600073ffffffffffffffffffffffffffffffffffffffff168373ffffffffffffffffffffffffffffffffffffffff16036115075760006040517f96c6fd1e0000000000000000000000000000000000000000000000000000000081526004016114fe919061227e565b60405180910390fd5b600073ffffffffffffffffffffffffffffffffffffffff168273ffffffffffffffffffffffffffffffffffffffff16036115795760006040517fec442f05000000000000000000000000000000000000000000000000000000008152600401611570919061227e565b60405180910390fd5b611584838383611a8f565b505050565b6115916113e7565b73ffffffffffffffffffffffffffffffffffffffff166115af610c6e565b73ffffffffffffffffffffffffffffffffffffffff161461160e576115d26113e7565b6040517f118cdaa7000000000000000000000000000000000000000000000000000000008152600401611605919061227e565b60405180910390fd5b565b611618611cb4565b6000600560006101000a81548160ff0219169083151502179055507f5db9ee0a495bf2e6ff9c91a7834c1ba4fdd244a5e8aa4e537bd38aeae4b073aa61165c6113e7565b604051611669919061227e565b60405180910390a1565b6000600560019054906101000a900473ffffffffffffffffffffffffffffffffffffffff16905081600560016101000a81548173ffffffffffffffffffffffffffffffffffffffff021916908373ffffffffffffffffffffffffffffffffffffffff1602179055508173ffffffffffffffffffffffffffffffffffffffff168173ffffffffffffffffffffffffffffffffffffffff167f8be0079c531659141344cd1fd0a4f28419497f9722a3daafe3b4186f6b6457e060405160405180910390a35050565b60008160405160200161174c91906128dd565b604051602081830303815290604052805190602001208360405160200161177391906128dd565b6040516020818303038152906040528051906020012014905092915050565b61179a611877565b6001600560006101000a81548160ff0219169083151502179055507f62e78cea01bee320cd4e420270b5ea74000d11b0c9f74754ebdbfc544b05a2586117de6113e7565b6040516117eb919061227e565b60405180910390a1565b600073ffffffffffffffffffffffffffffffffffffffff168273ffffffffffffffffffffffffffffffffffffffff16036118675760006040517fec442f0500000000000000000000000000000000000000000000000000000000815260040161185e919061227e565b60405180910390fd5b61187360008383611a8f565b5050565b61187f610867565b156118b6576040517fd93c066500000000000000000000000000000000000000000000000000000000815260040160405180910390fd5b565b600073ffffffffffffffffffffffffffffffffffffffff168473ffffffffffffffffffffffffffffffffffffffff160361192a5760006040517fe602df05000000000000000000000000000000000000000000000000000000008152600401611921919061227e565b60405180910390fd5b600073ffffffffffffffffffffffffffffffffffffffff168373ffffffffffffffffffffffffffffffffffffffff160361199c5760006040517f94280d62000000000000000000000000000000000000000000000000000000008152600401611993919061227e565b60405180910390fd5b81600160008673ffffffffffffffffffffffffffffffffffffffff1673ffffffffffffffffffffffffffffffffffffffff16815260200190815260200160002060008573ffffffffffffffffffffffffffffffffffffffff1673ffffffffffffffffffffffffffffffffffffffff168152602001908152602001600020819055508015611a89578273ffffffffffffffffffffffffffffffffffffffff168473ffffffffffffffffffffffffffffffffffffffff167f8c5be1e5ebec7d5bd14f71427d1e84f3dd0314c0f7b2291e5b200ac8c7c3b92584604051611a809190611ed3565b60405180910390a35b50505050565b600073ffffffffffffffffffffffffffffffffffffffff168373ffffffffffffffffffffffffffffffffffffffff1603611ae1578060026000828254611ad59190612504565b92505081905550611bb4565b60008060008573ffffffffffffffffffffffffffffffffffffffff1673ffffffffffffffffffffffffffffffffffffffff16815260200190815260200160002054905081811015611b6d578381836040517fe450d38c000000000000000000000000000000000000000000000000000000008152600401611b649392919061286a565b60405180910390fd5b8181036000808673ffffffffffffffffffffffffffffffffffffffff1673ffffffffffffffffffffffffffffffffffffffff16815260200190815260200160002081905550505b600073ffffffffffffffffffffffffffffffffffffffff168273ffffffffffffffffffffffffffffffffffffffff1603611bfd5780600260008282540392505081905550611c4a565b806000808473ffffffffffffffffffffffffffffffffffffffff1673ffffffffffffffffffffffffffffffffffffffff168152602001908152602001600020600082825401925050819055505b8173ffffffffffffffffffffffffffffffffffffffff168373ffffffffffffffffffffffffffffffffffffffff167fddf252ad1be2c89b69c2b068fc378daa952ba7f163c4a11628f55a4df523b3ef83604051611ca79190611ed3565b60405180910390a3505050565b611cbc610867565b611cf2576040517f8dfc202b00000000000000000000000000000000000000000000000000000000815260040160405180910390fd5b565b600081519050919050565b600082825260208201905092915050565b60005b83811015611d2e578082015181840152602081019050611d13565b60008484015250505050565b6000601f19601f8301169050919050565b6000611d5682611cf4565b611d608185611cff565b9350611d70818560208601611d10565b611d7981611d3a565b840191505092915050565b60006020820190508181036000830152611d9e8184611d4b565b905092915050565b6000604051905090565b600080fd5b600080fd5b600073ffffffffffffffffffffffffffffffffffffffff82169050919050565b6000611de582611dba565b9050919050565b611df581611dda565b8114611e0057600080fd5b50565b600081359050611e1281611dec565b92915050565b6000819050919050565b611e2b81611e18565b8114611e3657600080fd5b50565b600081359050611e4881611e22565b92915050565b60008060408385031215611e6557611e64611db0565b5b6000611e7385828601611e03565b9250506020611e8485828601611e39565b9150509250929050565b60008115159050919050565b611ea381611e8e565b82525050565b6000602082019050611ebe6000830184611e9a565b92915050565b611ecd81611e18565b82525050565b6000602082019050611ee86000830184611ec4565b92915050565b600080600060608486031215611f0757611f06611db0565b5b6000611f1586828701611e03565b9350506020611f2686828701611e03565b9250506040611f3786828701611e39565b9150509250925092565b6000819050919050565b6000611f66611f61611f5c84611dba565b611f41565b611dba565b9050919050565b6000611f7882611f4b565b9050919050565b6000611f8a82611f6d565b9050919050565b611f9a81611f7f565b82525050565b6000602082019050611fb56000830184611f91565b92915050565b600060ff82169050919050565b611fd181611fbb565b82525050565b6000602082019050611fec6000830184611fc8565b92915050565b7f4e487b7100000000000000000000000000000000000000000000000000000000600052602160045260246000fd5b6005811061203257612031611ff2565b5b50565b600081905061204382612021565b919050565b600061205382612035565b9050919050565b61206381612048565b82525050565b600060208201905061207e600083018461205a565b92915050565b60006020828403121561209a57612099611db0565b5b60006120a884828501611e39565b91505092915050565b6000602082840312156120c7576120c6611db0565b5b60006120d584828501611e03565b91505092915050565b600080fd5b600080fd5b7f4e487b7100000000000000000000000000000000000000000000000000000000600052604160045260246000fd5b61212082611d3a565b810181811067ffffffffffffffff8211171561213f5761213e6120e8565b5b80604052505050565b6000612152611da6565b905061215e8282612117565b919050565b600067ffffffffffffffff82111561217e5761217d6120e8565b5b61218782611d3a565b9050602081019050919050565b82818337600083830152505050565b60006121b66121b184612163565b612148565b9050828152602081018484840111156121d2576121d16120e3565b5b6121dd848285612194565b509392505050565b600082601f8301126121fa576121f96120de565b5b813561220a8482602086016121a3565b91505092915050565b6000806040838503121561222a57612229611db0565b5b600061223885828601611e39565b925050602083013567ffffffffffffffff81111561225957612258611db5565b5b612265858286016121e5565b9150509250929050565b61227881611dda565b82525050565b6000602082019050612293600083018461226f565b92915050565b600080604083850312156122b0576122af611db0565b5b60006122be85828601611e03565b92505060206122cf85828601611e03565b9150509250929050565b7f4e487b7100000000000000000000000000000000000000000000000000000000600052602260045260246000fd5b6000600282049050600182168061232057607f821691505b602082108103612333576123326122d9565b5b50919050565b60008151905061234881611e22565b92915050565b60006020828403121561236457612363611db0565b5b600061237284828501612339565b91505092915050565b6000604082019050612390600083018561226f565b61239d6020830184611ec4565b9392505050565b6123ad81611e8e565b81146123b857600080fd5b50565b6000815190506123ca816123a4565b92915050565b6000602082840312156123e6576123e5611db0565b5b60006123f4848285016123bb565b91505092915050565b7f704c424d3a204661696c656420746f207472616e736665722055534454000000600082015250565b6000612433601d83611cff565b915061243e826123fd565b602082019050919050565b6000602082019050818103600083015261246281612426565b9050919050565b7f704c424d3a2053616c652068617320616c726561647920656e64656400000000600082015250565b600061249f601c83611cff565b91506124aa82612469565b602082019050919050565b600060208201905081810360008301526124ce81612492565b9050919050565b7f4e487b7100000000000000000000000000000000000000000000000000000000600052601160045260246000fd5b600061250f82611e18565b915061251a83611e18565b9250828201905080821115612532576125316124d5565b5b92915050565b600060408201905061254d600083018561205a565b61255a602083018461205a565b9392505050565b600061256c82611e18565b915061257783611e18565b925082820390508181111561258f5761258e6124d5565b5b92915050565b7f704c424d3a2053616c6520686173206e6f742073746172746564000000000000600082015250565b60006125cb601a83611cff565b91506125d682612595565b602082019050919050565b600060208201905081810360008301526125fa816125be565b9050919050565b7f704c424d3a20496e76616c696420737461676520746f2070757263686173652060008201527f746f6b656e730000000000000000000000000000000000000000000000000000602082015250565b600061265d602683611cff565b915061266882612601565b604082019050919050565b6000602082019050818103600083015261268c81612650565b9050919050565b7f704c424d3a204e6f7420656e6f75676820746f6b656e732072656d61696e696e60008201527f6700000000000000000000000000000000000000000000000000000000000000602082015250565b60006126ef602183611cff565b91506126fa82612693565b604082019050919050565b6000602082019050818103600083015261271e816126e2565b9050919050565b7f704c424d3a205075726368617365206578636565647320636170000000000000600082015250565b600061275b601a83611cff565b915061276682612725565b602082019050919050565b6000602082019050818103600083015261278a8161274e565b9050919050565b600061279c82611e18565b91506127a783611e18565b92508282026127b581611e18565b915082820484148315176127cc576127cb6124d5565b5b5092915050565b7f4e487b7100000000000000000000000000000000000000000000000000000000600052601260045260246000fd5b600061280d82611e18565b915061281883611e18565b925082612828576128276127d3565b5b828204905092915050565b6000606082019050612848600083018661226f565b612855602083018561226f565b6128626040830184611ec4565b949350505050565b600060608201905061287f600083018661226f565b61288c6020830185611ec4565b6128996040830184611ec4565b949350505050565b600081905092915050565b60006128b782611cf4565b6128c181856128a1565b93506128d1818560208601611d10565b80840191505092915050565b60006128e982846128ac565b91508190509291505056fea26469706673582212201ec14940d507c83a18ed85a856c2cc479b8e6a3c92bf9280975fa6367944eb3a64736f6c63430008150033",
  "linkReferences": {},
  "deployedLinkReferences": {}
}