{
  "_format": "hh-sol-artifact-1",
  "contractName": "pLBM",
  "sourceName": "contracts/pLBM.sol",
  "abi": [
    {
      "inputs": [
        {
          "internalType": "address",
          "name": "_usdc",
          "type": "address"
        }
      ],
      "stateMutability": "nonpayable",
      "type": "constructor"
    },
    {
      "inputs": [
        {
          "internalType": "address",
          "name": "spender",
          "type": "address"
        },
        {
          "internalType": "uint256",
          "name": "allowance",
          "type": "uint256"
        },
        {
          "internalType": "uint256",
          "name": "needed",
          "type": "uint256"
        }
      ],
      "name": "ERC20InsufficientAllowance",
      "type": "error"
    },
    {
      "inputs": [
        {
          "internalType": "address",
          "name": "sender",
          "type": "address"
        },
        {
          "internalType": "uint256",
          "name": "balance",
          "type": "uint256"
        },
        {
          "internalType": "uint256",
          "name": "needed",
          "type": "uint256"
        }
      ],
      "name": "ERC20InsufficientBalance",
      "type": "error"
    },
    {
      "inputs": [
        {
          "internalType": "address",
          "name": "approver",
          "type": "address"
        }
      ],
      "name": "ERC20InvalidApprover",
      "type": "error"
    },
    {
      "inputs": [
        {
          "internalType": "address",
          "name": "receiver",
          "type": "address"
        }
      ],
      "name": "ERC20InvalidReceiver",
      "type": "error"
    },
    {
      "inputs": [
        {
          "internalType": "address",
          "name": "sender",
          "type": "address"
        }
      ],
      "name": "ERC20InvalidSender",
      "type": "error"
    },
    {
      "inputs": [
        {
          "internalType": "address",
          "name": "spender",
          "type": "address"
        }
      ],
      "name": "ERC20InvalidSpender",
      "type": "error"
    },
    {
      "inputs": [],
      "name": "EnforcedPause",
      "type": "error"
    },
    {
      "inputs": [],
      "name": "ExpectedPause",
      "type": "error"
    },
    {
      "inputs": [
        {
          "internalType": "address",
          "name": "owner",
          "type": "address"
        }
      ],
      "name": "OwnableInvalidOwner",
      "type": "error"
    },
    {
      "inputs": [
        {
          "internalType": "address",
          "name": "account",
          "type": "address"
        }
      ],
      "name": "OwnableUnauthorizedAccount",
      "type": "error"
    },
    {
      "anonymous": false,
      "inputs": [
        {
          "indexed": true,
          "internalType": "address",
          "name": "owner",
          "type": "address"
        },
        {
          "indexed": true,
          "internalType": "address",
          "name": "spender",
          "type": "address"
        },
        {
          "indexed": false,
          "internalType": "uint256",
          "name": "value",
          "type": "uint256"
        }
      ],
      "name": "Approval",
      "type": "event"
    },
    {
      "anonymous": false,
      "inputs": [
        {
          "indexed": true,
          "internalType": "address",
          "name": "previousOwner",
          "type": "address"
        },
        {
          "indexed": true,
          "internalType": "address",
          "name": "newOwner",
          "type": "address"
        }
      ],
      "name": "OwnershipTransferred",
      "type": "event"
    },
    {
      "anonymous": false,
      "inputs": [
        {
          "indexed": false,
          "internalType": "address",
          "name": "account",
          "type": "address"
        }
      ],
      "name": "Paused",
      "type": "event"
    },
    {
      "anonymous": false,
      "inputs": [
        {
          "indexed": false,
          "internalType": "enum pLBM.SaleStage",
          "name": "previousStage",
          "type": "uint8"
        },
        {
          "indexed": false,
          "internalType": "enum pLBM.SaleStage",
          "name": "currentStage",
          "type": "uint8"
        }
      ],
      "name": "StageProgressed",
      "type": "event"
    },
    {
      "anonymous": false,
      "inputs": [
        {
          "indexed": true,
          "internalType": "address",
          "name": "from",
          "type": "address"
        },
        {
          "indexed": true,
          "internalType": "address",
          "name": "to",
          "type": "address"
        },
        {
          "indexed": false,
          "internalType": "uint256",
          "name": "value",
          "type": "uint256"
        }
      ],
      "name": "Transfer",
      "type": "event"
    },
    {
      "anonymous": false,
      "inputs": [
        {
          "indexed": false,
          "internalType": "address",
          "name": "account",
          "type": "address"
        }
      ],
      "name": "Unpaused",
      "type": "event"
    },
    {
      "inputs": [],
      "name": "advanceToNextStage",
      "outputs": [],
      "stateMutability": "nonpayable",
      "type": "function"
    },
    {
      "inputs": [
        {
          "internalType": "address",
          "name": "owner",
          "type": "address"
        },
        {
          "internalType": "address",
          "name": "spender",
          "type": "address"
        }
      ],
      "name": "allowance",
      "outputs": [
        {
          "internalType": "uint256",
          "name": "",
          "type": "uint256"
        }
      ],
      "stateMutability": "view",
      "type": "function"
    },
    {
      "inputs": [
        {
          "internalType": "address",
          "name": "spender",
          "type": "address"
        },
        {
          "internalType": "uint256",
          "name": "value",
          "type": "uint256"
        }
      ],
      "name": "approve",
      "outputs": [
        {
          "internalType": "bool",
          "name": "",
          "type": "bool"
        }
      ],
      "stateMutability": "nonpayable",
      "type": "function"
    },
    {
      "inputs": [
        {
          "internalType": "address",
          "name": "account",
          "type": "address"
        }
      ],
      "name": "balanceOf",
      "outputs": [
        {
          "internalType": "uint256",
          "name": "",
          "type": "uint256"
        }
      ],
      "stateMutability": "view",
      "type": "function"
    },
    {
      "inputs": [
        {
          "internalType": "uint256",
          "name": "amount",
          "type": "uint256"
        }
      ],
      "name": "buy",
      "outputs": [],
      "stateMutability": "nonpayable",
      "type": "function"
    },
    {
      "inputs": [],
      "name": "currentStage",
      "outputs": [
        {
          "internalType": "enum pLBM.SaleStage",
          "name": "",
          "type": "uint8"
        }
      ],
      "stateMutability": "view",
      "type": "function"
    },
    {
      "inputs": [],
      "name": "decimals",
      "outputs": [
        {
          "internalType": "uint8",
          "name": "",
          "type": "uint8"
        }
      ],
      "stateMutability": "view",
      "type": "function"
    },
    {
      "inputs": [
        {
          "internalType": "uint256",
          "name": "amount",
          "type": "uint256"
        },
        {
          "internalType": "string",
          "name": "round",
          "type": "string"
        }
      ],
      "name": "increaseTokenSupply",
      "outputs": [],
      "stateMutability": "nonpayable",
      "type": "function"
    },
    {
      "inputs": [
        {
          "internalType": "address",
          "name": "investor",
          "type": "address"
        },
        {
          "internalType": "uint256",
          "name": "amount",
          "type": "uint256"
        }
      ],
      "name": "mintToInvestor",
      "outputs": [],
      "stateMutability": "nonpayable",
      "type": "function"
    },
    {
      "inputs": [
        {
          "internalType": "uint256",
          "name": "_publicCap",
          "type": "uint256"
        }
      ],
      "name": "modifyPublicCap",
      "outputs": [],
      "stateMutability": "nonpayable",
      "type": "function"
    },
    {
      "inputs": [
        {
          "internalType": "uint256",
          "name": "_seedCap",
          "type": "uint256"
        }
      ],
      "name": "modifySeedCap",
      "outputs": [],
      "stateMutability": "nonpayable",
      "type": "function"
    },
    {
      "inputs": [
        {
          "internalType": "address[]",
          "name": "users",
          "type": "address[]"
        },
        {
          "internalType": "uint256[]",
          "name": "allocations",
          "type": "uint256[]"
        }
      ],
      "name": "modifyWhitelistAllocations",
      "outputs": [],
      "stateMutability": "nonpayable",
      "type": "function"
    },
    {
      "inputs": [],
      "name": "name",
      "outputs": [
        {
          "internalType": "string",
          "name": "",
          "type": "string"
        }
      ],
      "stateMutability": "view",
      "type": "function"
    },
    {
      "inputs": [],
      "name": "owner",
      "outputs": [
        {
          "internalType": "address",
          "name": "",
          "type": "address"
        }
      ],
      "stateMutability": "view",
      "type": "function"
    },
    {
      "inputs": [],
      "name": "pause",
      "outputs": [],
      "stateMutability": "nonpayable",
      "type": "function"
    },
    {
      "inputs": [],
      "name": "paused",
      "outputs": [
        {
          "internalType": "bool",
          "name": "",
          "type": "bool"
        }
      ],
      "stateMutability": "view",
      "type": "function"
    },
    {
      "inputs": [],
      "name": "publicCap",
      "outputs": [
        {
          "internalType": "uint256",
          "name": "",
          "type": "uint256"
        }
      ],
      "stateMutability": "view",
      "type": "function"
    },
    {
      "inputs": [],
      "name": "publicPrice",
      "outputs": [
        {
          "internalType": "uint256",
          "name": "",
          "type": "uint256"
        }
      ],
      "stateMutability": "view",
      "type": "function"
    },
    {
      "inputs": [],
      "name": "publicTokensRemaining",
      "outputs": [
        {
          "internalType": "uint256",
          "name": "",
          "type": "uint256"
        }
      ],
      "stateMutability": "view",
      "type": "function"
    },
    {
      "inputs": [
        {
          "internalType": "uint256",
          "name": "amount",
          "type": "uint256"
        },
        {
          "internalType": "string",
          "name": "round",
          "type": "string"
        }
      ],
      "name": "reduceTokenSupply",
      "outputs": [],
      "stateMutability": "nonpayable",
      "type": "function"
    },
    {
      "inputs": [],
      "name": "renounceOwnership",
      "outputs": [],
      "stateMutability": "nonpayable",
      "type": "function"
    },
    {
      "inputs": [],
      "name": "revertToPreviousStage",
      "outputs": [],
      "stateMutability": "nonpayable",
      "type": "function"
    },
    {
      "inputs": [],
      "name": "seedCap",
      "outputs": [
        {
          "internalType": "uint256",
          "name": "",
          "type": "uint256"
        }
      ],
      "stateMutability": "view",
      "type": "function"
    },
    {
      "inputs": [],
      "name": "seedPrice",
      "outputs": [
        {
          "internalType": "uint256",
          "name": "",
          "type": "uint256"
        }
      ],
      "stateMutability": "view",
      "type": "function"
    },
    {
      "inputs": [],
      "name": "seedTokensRemaining",
      "outputs": [
        {
          "internalType": "uint256",
          "name": "",
          "type": "uint256"
        }
      ],
      "stateMutability": "view",
      "type": "function"
    },
    {
      "inputs": [],
      "name": "symbol",
      "outputs": [
        {
          "internalType": "string",
          "name": "",
          "type": "string"
        }
      ],
      "stateMutability": "view",
      "type": "function"
    },
    {
      "inputs": [],
      "name": "totalSupply",
      "outputs": [
        {
          "internalType": "uint256",
          "name": "",
          "type": "uint256"
        }
      ],
      "stateMutability": "view",
      "type": "function"
    },
    {
      "inputs": [
        {
          "internalType": "address",
          "name": "to",
          "type": "address"
        },
        {
          "internalType": "uint256",
          "name": "value",
          "type": "uint256"
        }
      ],
      "name": "transfer",
      "outputs": [
        {
          "internalType": "bool",
          "name": "",
          "type": "bool"
        }
      ],
      "stateMutability": "nonpayable",
      "type": "function"
    },
    {
      "inputs": [
        {
          "internalType": "address",
          "name": "from",
          "type": "address"
        },
        {
          "internalType": "address",
          "name": "to",
          "type": "address"
        },
        {
          "internalType": "uint256",
          "name": "value",
          "type": "uint256"
        }
      ],
      "name": "transferFrom",
      "outputs": [
        {
          "internalType": "bool",
          "name": "",
          "type": "bool"
        }
      ],
      "stateMutability": "nonpayable",
      "type": "function"
    },
    {
      "inputs": [
        {
          "internalType": "address",
          "name": "newOwner",
          "type": "address"
        }
      ],
      "name": "transferOwnership",
      "outputs": [],
      "stateMutability": "nonpayable",
      "type": "function"
    },
    {
      "inputs": [],
      "name": "unpause",
      "outputs": [],
      "stateMutability": "nonpayable",
      "type": "function"
    },
    {
      "inputs": [],
      "name": "usdc",
      "outputs": [
        {
          "internalType": "contract IERC20",
          "name": "",
          "type": "address"
        }
      ],
      "stateMutability": "view",
      "type": "function"
    },
    {
      "inputs": [
        {
          "internalType": "address",
          "name": "user",
          "type": "address"
        }
      ],
      "name": "viewWhitelistAllocation",
      "outputs": [
        {
          "internalType": "uint256",
          "name": "",
          "type": "uint256"
        }
      ],
      "stateMutability": "view",
      "type": "function"
    },
    {
      "inputs": [
        {
          "internalType": "address",
          "name": "",
          "type": "address"
        }
      ],
      "name": "whitelistAllocations",
      "outputs": [
        {
          "internalType": "uint256",
          "name": "",
          "type": "uint256"
        }
      ],
      "stateMutability": "view",
      "type": "function"
    },
    {
      "inputs": [],
      "name": "whitelistPrice",
      "outputs": [
        {
          "internalType": "uint256",
          "name": "",
          "type": "uint256"
        }
      ],
      "stateMutability": "view",
      "type": "function"
    },
    {
      "inputs": [],
      "name": "whitelistTokensRemaining",
      "outputs": [
        {
          "internalType": "uint256",
          "name": "",
          "type": "uint256"
        }
      ],
      "stateMutability": "view",
      "type": "function"
    },
    {
      "inputs": [],
      "name": "withdrawAllFunds",
      "outputs": [],
      "stateMutability": "nonpayable",
      "type": "function"
    }
  ],
  "bytecode": "0x60806040526a04f68ca6d8cd91c60000006007556a084595161401484a0000006008556a260ce0ff28d2b2ee000000600955600754600a55600954600b5561ea60600c5562011940600d5562013880600e556000600f60006101000a81548160ff021916908360068111156200007a5762000079620002f5565b5b02179055503480156200008c57600080fd5b50604051620039c6380380620039c68339818101604052810190620000b291906200038e565b336040518060400160405280600481526020017f704c424d000000000000000000000000000000000000000000000000000000008152506040518060400160405280600481526020017f704c424d0000000000000000000000000000000000000000000000000000000081525081600390816200013091906200063a565b5080600490816200014291906200063a565b5050506000600560006101000a81548160ff021916908315150217905550600073ffffffffffffffffffffffffffffffffffffffff168173ffffffffffffffffffffffffffffffffffffffff1603620001d55760006040517f1e4fbdf7000000000000000000000000000000000000000000000000000000008152600401620001cc919062000732565b60405180910390fd5b620001e6816200022f60201b60201c565b5080600660006101000a81548173ffffffffffffffffffffffffffffffffffffffff021916908373ffffffffffffffffffffffffffffffffffffffff160217905550506200074f565b6000600560019054906101000a900473ffffffffffffffffffffffffffffffffffffffff16905081600560016101000a81548173ffffffffffffffffffffffffffffffffffffffff021916908373ffffffffffffffffffffffffffffffffffffffff1602179055508173ffffffffffffffffffffffffffffffffffffffff168173ffffffffffffffffffffffffffffffffffffffff167f8be0079c531659141344cd1fd0a4f28419497f9722a3daafe3b4186f6b6457e060405160405180910390a35050565b7f4e487b7100000000000000000000000000000000000000000000000000000000600052602160045260246000fd5b600080fd5b600073ffffffffffffffffffffffffffffffffffffffff82169050919050565b6000620003568262000329565b9050919050565b620003688162000349565b81146200037457600080fd5b50565b60008151905062000388816200035d565b92915050565b600060208284031215620003a757620003a662000324565b5b6000620003b78482850162000377565b91505092915050565b600081519050919050565b7f4e487b7100000000000000000000000000000000000000000000000000000000600052604160045260246000fd5b7f4e487b7100000000000000000000000000000000000000000000000000000000600052602260045260246000fd5b600060028204905060018216806200044257607f821691505b602082108103620004585762000457620003fa565b5b50919050565b60008190508160005260206000209050919050565b60006020601f8301049050919050565b600082821b905092915050565b600060088302620004c27fffffffffffffffffffffffffffffffffffffffffffffffffffffffffffffffff8262000483565b620004ce868362000483565b95508019841693508086168417925050509392505050565b6000819050919050565b6000819050919050565b60006200051b620005156200050f84620004e6565b620004f0565b620004e6565b9050919050565b6000819050919050565b6200053783620004fa565b6200054f620005468262000522565b84845462000490565b825550505050565b600090565b6200056662000557565b620005738184846200052c565b505050565b5b818110156200059b576200058f6000826200055c565b60018101905062000579565b5050565b601f821115620005ea57620005b4816200045e565b620005bf8462000473565b81016020851015620005cf578190505b620005e7620005de8562000473565b83018262000578565b50505b505050565b600082821c905092915050565b60006200060f60001984600802620005ef565b1980831691505092915050565b60006200062a8383620005fc565b9150826002028217905092915050565b6200064582620003c0565b67ffffffffffffffff811115620006615762000660620003cb565b5b6200066d825462000429565b6200067a8282856200059f565b600060209050601f831160018114620006b257600084156200069d578287015190505b620006a985826200061c565b86555062000719565b601f198416620006c2866200045e565b60005b82811015620006ec57848901518255600182019150602085019450602081019050620006c5565b868310156200070c578489015162000708601f891682620005fc565b8355505b6001600288020188555050505b505050505050565b6200072c8162000349565b82525050565b600060208201905062000749600083018462000721565b92915050565b613267806200075f6000396000f3fe608060405234801561001057600080fd5b50600436106102275760003560e01c806379d1f05b11610130578063a945bf80116100b8578063e127386c1161007c578063e127386c146105d4578063eeca3ba8146105f0578063f2fde38b14610620578063f3b90e491461063c578063fc1a1c361461065a57610227565b8063a945bf801461051e578063aa6ff8201461053c578063bd90f0d114610558578063d96a094a14610588578063dd62ed3e146105a457610227565b80638880bfdf116100ff5780638880bfdf146104785780638da5cb5b1461049657806395d89b41146104b4578063a15c6676146104d2578063a9059cbb146104ee57610227565b806379d1f05b1461042a5780637e34cd3d146104465780638456cb5914610464578063887741b21461046e57610227565b80633f4ba83a116101b35780635c975abb116101825780635c975abb146103ac578063679b1ad1146103ca57806370a08231146103d4578063715018a61461040457806375cf72b41461040e57610227565b80633f4ba83a1461035e578063470a2d691461036857806349649fbf146103845780635bf5d54c1461038e57610227565b806323b872dd116101fa57806323b872dd146102b65780632bfff60e146102e65780632d9df54e14610304578063313ce567146103225780633e413bee1461034057610227565b8063036f74e31461022c57806306fdde031461024a578063095ea7b31461026857806318160ddd14610298575b600080fd5b610234610678565b60405161024191906122d2565b60405180910390f35b61025261067e565b60405161025f919061237d565b60405180910390f35b610282600480360381019061027d919061243d565b610710565b60405161028f9190612498565b60405180910390f35b6102a0610733565b6040516102ad91906122d2565b60405180910390f35b6102d060048036038101906102cb91906124b3565b61073d565b6040516102dd9190612498565b60405180910390f35b6102ee61076c565b6040516102fb91906122d2565b60405180910390f35b61030c610772565b60405161031991906122d2565b60405180910390f35b61032a610778565b6040516103379190612522565b60405180910390f35b610348610781565b604051610355919061259c565b60405180910390f35b6103666107a7565b005b610382600480360381019061037d91906127c2565b6107b9565b005b61038c6108a1565b005b610396610a25565b6040516103a391906128b1565b60405180910390f35b6103b4610a38565b6040516103c19190612498565b60405180910390f35b6103d2610a4f565b005b6103ee60048036038101906103e991906128cc565b610b94565b6040516103fb91906122d2565b60405180910390f35b61040c610bdc565b005b610428600480360381019061042391906128f9565b610bf0565b005b610444600480360381019061043f91906129db565b610c02565b005b61044e610d32565b60405161045b91906122d2565b60405180910390f35b61046c610d38565b005b610476610d4a565b005b610480610e90565b60405161048d91906122d2565b60405180910390f35b61049e610e96565b6040516104ab9190612a46565b60405180910390f35b6104bc610ec0565b6040516104c9919061237d565b60405180910390f35b6104ec60048036038101906104e7919061243d565b610f52565b005b6105086004803603810190610503919061243d565b610f68565b6040516105159190612498565b60405180910390f35b610526610f8b565b60405161053391906122d2565b60405180910390f35b610556600480360381019061055191906128f9565b610f91565b005b610572600480360381019061056d91906128cc565b610fa3565b60405161057f91906122d2565b60405180910390f35b6105a2600480360381019061059d91906128f9565b610fec565b005b6105be60048036038101906105b99190612a61565b61174b565b6040516105cb91906122d2565b60405180910390f35b6105ee60048036038101906105e991906129db565b6117d2565b005b61060a600480360381019061060591906128cc565b611902565b60405161061791906122d2565b60405180910390f35b61063a600480360381019061063591906128cc565b61191a565b005b6106446119a0565b60405161065191906122d2565b60405180910390f35b6106626119a6565b60405161066f91906122d2565b60405180910390f35b600b5481565b60606003805461068d90612ad0565b80601f01602080910402602001604051908101604052809291908181526020018280546106b990612ad0565b80156107065780601f106106db57610100808354040283529160200191610706565b820191906000526020600020905b8154815290600101906020018083116106e957829003601f168201915b5050505050905090565b60008061071b6119ac565b90506107288185856119b4565b600191505092915050565b6000600254905090565b6000806107486119ac565b90506107558582856119c6565b610760858585611a5a565b60019150509392505050565b60075481565b600a5481565b60006012905090565b600660009054906101000a900473ffffffffffffffffffffffffffffffffffffffff1681565b6107af611b4e565b6107b7611bd5565b565b6107c1611b4e565b8051825114610805576040517f08c379a00000000000000000000000000000000000000000000000000000000081526004016107fc90612b4d565b60405180910390fd5b60005b825181101561089c5781818151811061082457610823612b6d565b5b60200260200101516010600085848151811061084357610842612b6d565b5b602002602001015173ffffffffffffffffffffffffffffffffffffffff1673ffffffffffffffffffffffffffffffffffffffff16815260200190815260200160002081905550808061089490612bcb565b915050610808565b505050565b6108a9611b4e565b600660009054906101000a900473ffffffffffffffffffffffffffffffffffffffff1673ffffffffffffffffffffffffffffffffffffffff1663a9059cbb33600660009054906101000a900473ffffffffffffffffffffffffffffffffffffffff1673ffffffffffffffffffffffffffffffffffffffff166370a08231306040518263ffffffff1660e01b81526004016109439190612a46565b602060405180830381865afa158015610960573d6000803e3d6000fd5b505050506040513d601f19601f820116820180604052508101906109849190612c28565b6040518363ffffffff1660e01b81526004016109a1929190612c55565b6020604051808303816000875af11580156109c0573d6000803e3d6000fd5b505050506040513d601f19601f820116820180604052508101906109e49190612caa565b610a23576040517f08c379a0000000000000000000000000000000000000000000000000000000008152600401610a1a90612d23565b60405180910390fd5b565b600f60009054906101000a900460ff1681565b6000600560009054906101000a900460ff16905090565b610a57611b4e565b600680811115610a6a57610a6961283a565b5b600f60009054906101000a900460ff166006811115610a8c57610a8b61283a565b5b03610acc576040517f08c379a0000000000000000000000000000000000000000000000000000000008152600401610ac390612d8f565b60405180910390fd5b6000600f60009054906101000a900460ff1690506001600f60009054906101000a900460ff166006811115610b0457610b0361283a565b5b610b0e9190612daf565b6006811115610b2057610b1f61283a565b5b600f60006101000a81548160ff02191690836006811115610b4457610b4361283a565b5b02179055507ff3f787841a3a0957fb0240a97063270279209e5092e043c90433e0b4c62ddbeb81600f60009054906101000a900460ff16604051610b89929190612de3565b60405180910390a150565b60008060008373ffffffffffffffffffffffffffffffffffffffff1673ffffffffffffffffffffffffffffffffffffffff168152602001908152602001600020549050919050565b610be4611b4e565b610bee6000611c38565b565b610bf8611b4e565b80600a8190555050565b610c0a611b4e565b610c49816040518060400160405280600481526020017f7365656400000000000000000000000000000000000000000000000000000000815250611cfe565b15610c6c578160076000828254610c609190612e0c565b92505081905550610d2e565b610cab816040518060400160405280600981526020017f77686974656c6973740000000000000000000000000000000000000000000000815250611cfe565b15610cce578160086000828254610cc29190612e0c565b92505081905550610d2d565b610d0d816040518060400160405280600681526020017f7075626c69630000000000000000000000000000000000000000000000000000815250611cfe565b15610d2c578160096000828254610d249190612e0c565b925050819055505b5b5b5050565b600c5481565b610d40611b4e565b610d48611d57565b565b610d52611b4e565b60006006811115610d6657610d6561283a565b5b600f60009054906101000a900460ff166006811115610d8857610d8761283a565b5b03610dc8576040517f08c379a0000000000000000000000000000000000000000000000000000000008152600401610dbf90612e8c565b60405180910390fd5b6000600f60009054906101000a900460ff1690506001600f60009054906101000a900460ff166006811115610e0057610dff61283a565b5b610e0a9190612e0c565b6006811115610e1c57610e1b61283a565b5b600f60006101000a81548160ff02191690836006811115610e4057610e3f61283a565b5b02179055507ff3f787841a3a0957fb0240a97063270279209e5092e043c90433e0b4c62ddbeb81600f60009054906101000a900460ff16604051610e85929190612de3565b60405180910390a150565b60095481565b6000600560019054906101000a900473ffffffffffffffffffffffffffffffffffffffff16905090565b606060048054610ecf90612ad0565b80601f0160208091040260200160405190810160405280929190818152602001828054610efb90612ad0565b8015610f485780601f10610f1d57610100808354040283529160200191610f48565b820191906000526020600020905b815481529060010190602001808311610f2b57829003601f168201915b5050505050905090565b610f5a611b4e565b610f648282611dba565b5050565b600080610f736119ac565b9050610f80818585611a5a565b600191505092915050565b600e5481565b610f99611b4e565b80600b8190555050565b6000601060008373ffffffffffffffffffffffffffffffffffffffff1673ffffffffffffffffffffffffffffffffffffffff168152602001908152602001600020549050919050565b600f60009054906101000a900460ff16600160068111156110105761100f61283a565b5b600f60009054906101000a900460ff1660068111156110325761103161283a565b5b148061107157506003600681111561104d5761104c61283a565b5b600f60009054906101000a900460ff16600681111561106f5761106e61283a565b5b145b806110af57506005600681111561108b5761108a61283a565b5b600f60009054906101000a900460ff1660068111156110ad576110ac61283a565b5b145b6110ee576040517f08c379a00000000000000000000000000000000000000000000000000000000081526004016110e590612f1e565b60405180910390fd5b6110f6611e3c565b6001600681111561110a5761110961283a565b5b600f60009054906101000a900460ff16600681111561112c5761112b61283a565b5b036112e057816007541015611176576040517f08c379a000000000000000000000000000000000000000000000000000000000815260040161116d90612fb0565b60405180910390fd5b600a548211156111bb576040517f08c379a00000000000000000000000000000000000000000000000000000000081526004016111b29061301c565b60405180910390fd5b600660009054906101000a900473ffffffffffffffffffffffffffffffffffffffff1673ffffffffffffffffffffffffffffffffffffffff166323b872dd3330670de0b6b3a7640000600c5487611212919061303c565b61121c91906130ad565b6040518463ffffffff1660e01b815260040161123a939291906130de565b6020604051808303816000875af1158015611259573d6000803e3d6000fd5b505050506040513d601f19601f8201168201806040525081019061127d9190612caa565b6112bc576040517f08c379a00000000000000000000000000000000000000000000000000000000081526004016112b390612d23565b60405180910390fd5b81600760008282546112ce9190612e0c565b925050819055506112df3383611dba565b5b600360068111156112f4576112f361283a565b5b600f60009054906101000a900460ff1660068111156113165761131561283a565b5b0361155d57816008541015611360576040517f08c379a000000000000000000000000000000000000000000000000000000000815260040161135790612fb0565b60405180910390fd5b81601060003373ffffffffffffffffffffffffffffffffffffffff1673ffffffffffffffffffffffffffffffffffffffff1681526020019081526020016000205410156113e2576040517f08c379a00000000000000000000000000000000000000000000000000000000081526004016113d990613187565b60405180910390fd5b600660009054906101000a900473ffffffffffffffffffffffffffffffffffffffff1673ffffffffffffffffffffffffffffffffffffffff166323b872dd3330670de0b6b3a7640000600d5487611439919061303c565b61144391906130ad565b6040518463ffffffff1660e01b8152600401611461939291906130de565b6020604051808303816000875af1158015611480573d6000803e3d6000fd5b505050506040513d601f19601f820116820180604052508101906114a49190612caa565b6114e3576040517f08c379a00000000000000000000000000000000000000000000000000000000081526004016114da90612d23565b60405180910390fd5b81600860008282546114f59190612e0c565b9250508190555081601060003373ffffffffffffffffffffffffffffffffffffffff1673ffffffffffffffffffffffffffffffffffffffff168152602001908152602001600020600082825461154b9190612e0c565b9250508190555061155c3383611dba565b5b600560068111156115715761157061283a565b5b600f60009054906101000a900460ff1660068111156115935761159261283a565b5b03611747578160095410156115dd576040517f08c379a00000000000000000000000000000000000000000000000000000000081526004016115d490612fb0565b60405180910390fd5b600b54821115611622576040517f08c379a00000000000000000000000000000000000000000000000000000000081526004016116199061301c565b60405180910390fd5b600660009054906101000a900473ffffffffffffffffffffffffffffffffffffffff1673ffffffffffffffffffffffffffffffffffffffff166323b872dd3330670de0b6b3a7640000600e5487611679919061303c565b61168391906130ad565b6040518463ffffffff1660e01b81526004016116a1939291906130de565b6020604051808303816000875af11580156116c0573d6000803e3d6000fd5b505050506040513d601f19601f820116820180604052508101906116e49190612caa565b611723576040517f08c379a000000000000000000000000000000000000000000000000000000000815260040161171a90612d23565b60405180910390fd5b81600960008282546117359190612e0c565b925050819055506117463383611dba565b5b5050565b6000600160008473ffffffffffffffffffffffffffffffffffffffff1673ffffffffffffffffffffffffffffffffffffffff16815260200190815260200160002060008373ffffffffffffffffffffffffffffffffffffffff1673ffffffffffffffffffffffffffffffffffffffff16815260200190815260200160002054905092915050565b6117da611b4e565b611819816040518060400160405280600481526020017f7365656400000000000000000000000000000000000000000000000000000000815250611cfe565b1561183c5781600760008282546118309190612daf565b925050819055506118fe565b61187b816040518060400160405280600981526020017f77686974656c6973740000000000000000000000000000000000000000000000815250611cfe565b1561189e5781600860008282546118929190612daf565b925050819055506118fd565b6118dd816040518060400160405280600681526020017f7075626c69630000000000000000000000000000000000000000000000000000815250611cfe565b156118fc5781600960008282546118f49190612daf565b925050819055505b5b5b5050565b60106020528060005260406000206000915090505481565b611922611b4e565b600073ffffffffffffffffffffffffffffffffffffffff168173ffffffffffffffffffffffffffffffffffffffff16036119945760006040517f1e4fbdf700000000000000000000000000000000000000000000000000000000815260040161198b9190612a46565b60405180910390fd5b61199d81611c38565b50565b60085481565b600d5481565b600033905090565b6119c18383836001611e7d565b505050565b60006119d2848461174b565b90507fffffffffffffffffffffffffffffffffffffffffffffffffffffffffffffffff8114611a545781811015611a44578281836040517ffb8f41b2000000000000000000000000000000000000000000000000000000008152600401611a3b939291906131a7565b60405180910390fd5b611a5384848484036000611e7d565b5b50505050565b600073ffffffffffffffffffffffffffffffffffffffff168373ffffffffffffffffffffffffffffffffffffffff1603611acc5760006040517f96c6fd1e000000000000000000000000000000000000000000000000000000008152600401611ac39190612a46565b60405180910390fd5b600073ffffffffffffffffffffffffffffffffffffffff168273ffffffffffffffffffffffffffffffffffffffff1603611b3e5760006040517fec442f05000000000000000000000000000000000000000000000000000000008152600401611b359190612a46565b60405180910390fd5b611b49838383612054565b505050565b611b566119ac565b73ffffffffffffffffffffffffffffffffffffffff16611b74610e96565b73ffffffffffffffffffffffffffffffffffffffff1614611bd357611b976119ac565b6040517f118cdaa7000000000000000000000000000000000000000000000000000000008152600401611bca9190612a46565b60405180910390fd5b565b611bdd612279565b6000600560006101000a81548160ff0219169083151502179055507f5db9ee0a495bf2e6ff9c91a7834c1ba4fdd244a5e8aa4e537bd38aeae4b073aa611c216119ac565b604051611c2e9190612a46565b60405180910390a1565b6000600560019054906101000a900473ffffffffffffffffffffffffffffffffffffffff16905081600560016101000a81548173ffffffffffffffffffffffffffffffffffffffff021916908373ffffffffffffffffffffffffffffffffffffffff1602179055508173ffffffffffffffffffffffffffffffffffffffff168173ffffffffffffffffffffffffffffffffffffffff167f8be0079c531659141344cd1fd0a4f28419497f9722a3daafe3b4186f6b6457e060405160405180910390a35050565b600081604051602001611d11919061321a565b6040516020818303038152906040528051906020012083604051602001611d38919061321a565b6040516020818303038152906040528051906020012014905092915050565b611d5f611e3c565b6001600560006101000a81548160ff0219169083151502179055507f62e78cea01bee320cd4e420270b5ea74000d11b0c9f74754ebdbfc544b05a258611da36119ac565b604051611db09190612a46565b60405180910390a1565b600073ffffffffffffffffffffffffffffffffffffffff168273ffffffffffffffffffffffffffffffffffffffff1603611e2c5760006040517fec442f05000000000000000000000000000000000000000000000000000000008152600401611e239190612a46565b60405180910390fd5b611e3860008383612054565b5050565b611e44610a38565b15611e7b576040517fd93c066500000000000000000000000000000000000000000000000000000000815260040160405180910390fd5b565b600073ffffffffffffffffffffffffffffffffffffffff168473ffffffffffffffffffffffffffffffffffffffff1603611eef5760006040517fe602df05000000000000000000000000000000000000000000000000000000008152600401611ee69190612a46565b60405180910390fd5b600073ffffffffffffffffffffffffffffffffffffffff168373ffffffffffffffffffffffffffffffffffffffff1603611f615760006040517f94280d62000000000000000000000000000000000000000000000000000000008152600401611f589190612a46565b60405180910390fd5b81600160008673ffffffffffffffffffffffffffffffffffffffff1673ffffffffffffffffffffffffffffffffffffffff16815260200190815260200160002060008573ffffffffffffffffffffffffffffffffffffffff1673ffffffffffffffffffffffffffffffffffffffff16815260200190815260200160002081905550801561204e578273ffffffffffffffffffffffffffffffffffffffff168473ffffffffffffffffffffffffffffffffffffffff167f8c5be1e5ebec7d5bd14f71427d1e84f3dd0314c0f7b2291e5b200ac8c7c3b9258460405161204591906122d2565b60405180910390a35b50505050565b600073ffffffffffffffffffffffffffffffffffffffff168373ffffffffffffffffffffffffffffffffffffffff16036120a657806002600082825461209a9190612daf565b92505081905550612179565b60008060008573ffffffffffffffffffffffffffffffffffffffff1673ffffffffffffffffffffffffffffffffffffffff16815260200190815260200160002054905081811015612132578381836040517fe450d38c000000000000000000000000000000000000000000000000000000008152600401612129939291906131a7565b60405180910390fd5b8181036000808673ffffffffffffffffffffffffffffffffffffffff1673ffffffffffffffffffffffffffffffffffffffff16815260200190815260200160002081905550505b600073ffffffffffffffffffffffffffffffffffffffff168273ffffffffffffffffffffffffffffffffffffffff16036121c2578060026000828254039250508190555061220f565b806000808473ffffffffffffffffffffffffffffffffffffffff1673ffffffffffffffffffffffffffffffffffffffff168152602001908152602001600020600082825401925050819055505b8173ffffffffffffffffffffffffffffffffffffffff168373ffffffffffffffffffffffffffffffffffffffff167fddf252ad1be2c89b69c2b068fc378daa952ba7f163c4a11628f55a4df523b3ef8360405161226c91906122d2565b60405180910390a3505050565b612281610a38565b6122b7576040517f8dfc202b00000000000000000000000000000000000000000000000000000000815260040160405180910390fd5b565b6000819050919050565b6122cc816122b9565b82525050565b60006020820190506122e760008301846122c3565b92915050565b600081519050919050565b600082825260208201905092915050565b60005b8381101561232757808201518184015260208101905061230c565b60008484015250505050565b6000601f19601f8301169050919050565b600061234f826122ed565b61235981856122f8565b9350612369818560208601612309565b61237281612333565b840191505092915050565b600060208201905081810360008301526123978184612344565b905092915050565b6000604051905090565b600080fd5b600080fd5b600073ffffffffffffffffffffffffffffffffffffffff82169050919050565b60006123de826123b3565b9050919050565b6123ee816123d3565b81146123f957600080fd5b50565b60008135905061240b816123e5565b92915050565b61241a816122b9565b811461242557600080fd5b50565b60008135905061243781612411565b92915050565b60008060408385031215612454576124536123a9565b5b6000612462858286016123fc565b925050602061247385828601612428565b9150509250929050565b60008115159050919050565b6124928161247d565b82525050565b60006020820190506124ad6000830184612489565b92915050565b6000806000606084860312156124cc576124cb6123a9565b5b60006124da868287016123fc565b93505060206124eb868287016123fc565b92505060406124fc86828701612428565b9150509250925092565b600060ff82169050919050565b61251c81612506565b82525050565b60006020820190506125376000830184612513565b92915050565b6000819050919050565b600061256261255d612558846123b3565b61253d565b6123b3565b9050919050565b600061257482612547565b9050919050565b600061258682612569565b9050919050565b6125968161257b565b82525050565b60006020820190506125b1600083018461258d565b92915050565b600080fd5b7f4e487b7100000000000000000000000000000000000000000000000000000000600052604160045260246000fd5b6125f482612333565b810181811067ffffffffffffffff82111715612613576126126125bc565b5b80604052505050565b600061262661239f565b905061263282826125eb565b919050565b600067ffffffffffffffff821115612652576126516125bc565b5b602082029050602081019050919050565b600080fd5b600061267b61267684612637565b61261c565b9050808382526020820190506020840283018581111561269e5761269d612663565b5b835b818110156126c757806126b388826123fc565b8452602084019350506020810190506126a0565b5050509392505050565b600082601f8301126126e6576126e56125b7565b5b81356126f6848260208601612668565b91505092915050565b600067ffffffffffffffff82111561271a576127196125bc565b5b602082029050602081019050919050565b600061273e612739846126ff565b61261c565b9050808382526020820190506020840283018581111561276157612760612663565b5b835b8181101561278a57806127768882612428565b845260208401935050602081019050612763565b5050509392505050565b600082601f8301126127a9576127a86125b7565b5b81356127b984826020860161272b565b91505092915050565b600080604083850312156127d9576127d86123a9565b5b600083013567ffffffffffffffff8111156127f7576127f66123ae565b5b612803858286016126d1565b925050602083013567ffffffffffffffff811115612824576128236123ae565b5b61283085828601612794565b9150509250929050565b7f4e487b7100000000000000000000000000000000000000000000000000000000600052602160045260246000fd5b6007811061287a5761287961283a565b5b50565b600081905061288b82612869565b919050565b600061289b8261287d565b9050919050565b6128ab81612890565b82525050565b60006020820190506128c660008301846128a2565b92915050565b6000602082840312156128e2576128e16123a9565b5b60006128f0848285016123fc565b91505092915050565b60006020828403121561290f5761290e6123a9565b5b600061291d84828501612428565b91505092915050565b600080fd5b600067ffffffffffffffff821115612946576129456125bc565b5b61294f82612333565b9050602081019050919050565b82818337600083830152505050565b600061297e6129798461292b565b61261c565b90508281526020810184848401111561299a57612999612926565b5b6129a584828561295c565b509392505050565b600082601f8301126129c2576129c16125b7565b5b81356129d284826020860161296b565b91505092915050565b600080604083850312156129f2576129f16123a9565b5b6000612a0085828601612428565b925050602083013567ffffffffffffffff811115612a2157612a206123ae565b5b612a2d858286016129ad565b9150509250929050565b612a40816123d3565b82525050565b6000602082019050612a5b6000830184612a37565b92915050565b60008060408385031215612a7857612a776123a9565b5b6000612a86858286016123fc565b9250506020612a97858286016123fc565b9150509250929050565b7f4e487b7100000000000000000000000000000000000000000000000000000000600052602260045260246000fd5b60006002820490506001821680612ae857607f821691505b602082108103612afb57612afa612aa1565b5b50919050565b7f704c424d3a20496e76616c696420696e707574206c656e677468730000000000600082015250565b6000612b37601b836122f8565b9150612b4282612b01565b602082019050919050565b60006020820190508181036000830152612b6681612b2a565b9050919050565b7f4e487b7100000000000000000000000000000000000000000000000000000000600052603260045260246000fd5b7f4e487b7100000000000000000000000000000000000000000000000000000000600052601160045260246000fd5b6000612bd6826122b9565b91507fffffffffffffffffffffffffffffffffffffffffffffffffffffffffffffffff8203612c0857612c07612b9c565b5b600182019050919050565b600081519050612c2281612411565b92915050565b600060208284031215612c3e57612c3d6123a9565b5b6000612c4c84828501612c13565b91505092915050565b6000604082019050612c6a6000830185612a37565b612c7760208301846122c3565b9392505050565b612c878161247d565b8114612c9257600080fd5b50565b600081519050612ca481612c7e565b92915050565b600060208284031215612cc057612cbf6123a9565b5b6000612cce84828501612c95565b91505092915050565b7f704c424d3a204661696c656420746f207472616e736665722055534443000000600082015250565b6000612d0d601d836122f8565b9150612d1882612cd7565b602082019050919050565b60006020820190508181036000830152612d3c81612d00565b9050919050565b7f704c424d3a2053616c652068617320616c726561647920656e64656400000000600082015250565b6000612d79601c836122f8565b9150612d8482612d43565b602082019050919050565b60006020820190508181036000830152612da881612d6c565b9050919050565b6000612dba826122b9565b9150612dc5836122b9565b9250828201905080821115612ddd57612ddc612b9c565b5b92915050565b6000604082019050612df860008301856128a2565b612e0560208301846128a2565b9392505050565b6000612e17826122b9565b9150612e22836122b9565b9250828203905081811115612e3a57612e39612b9c565b5b92915050565b7f704c424d3a2053616c6520686173206e6f742073746172746564000000000000600082015250565b6000612e76601a836122f8565b9150612e8182612e40565b602082019050919050565b60006020820190508181036000830152612ea581612e69565b9050919050565b7f704c424d3a20496e76616c696420737461676520746f2070757263686173652060008201527f746f6b656e730000000000000000000000000000000000000000000000000000602082015250565b6000612f086026836122f8565b9150612f1382612eac565b604082019050919050565b60006020820190508181036000830152612f3781612efb565b9050919050565b7f704c424d3a204e6f7420656e6f75676820746f6b656e732072656d61696e696e60008201527f6700000000000000000000000000000000000000000000000000000000000000602082015250565b6000612f9a6021836122f8565b9150612fa582612f3e565b604082019050919050565b60006020820190508181036000830152612fc981612f8d565b9050919050565b7f704c424d3a205075726368617365206578636565647320636170000000000000600082015250565b6000613006601a836122f8565b915061301182612fd0565b602082019050919050565b6000602082019050818103600083015261303581612ff9565b9050919050565b6000613047826122b9565b9150613052836122b9565b9250828202613060816122b9565b9150828204841483151761307757613076612b9c565b5b5092915050565b7f4e487b7100000000000000000000000000000000000000000000000000000000600052601260045260246000fd5b60006130b8826122b9565b91506130c3836122b9565b9250826130d3576130d261307e565b5b828204905092915050565b60006060820190506130f36000830186612a37565b6131006020830185612a37565b61310d60408301846122c3565b949350505050565b7f704c424d3a205075726368617365206578636565647320616c6c6f636174696f60008201527f6e00000000000000000000000000000000000000000000000000000000000000602082015250565b60006131716021836122f8565b915061317c82613115565b604082019050919050565b600060208201905081810360008301526131a081613164565b9050919050565b60006060820190506131bc6000830186612a37565b6131c960208301856122c3565b6131d660408301846122c3565b949350505050565b600081905092915050565b60006131f4826122ed565b6131fe81856131de565b935061320e818560208601612309565b80840191505092915050565b600061322682846131e9565b91508190509291505056fea2646970667358221220b6f5351ed0080da53ff520ed570b0194aed82ebe823b91ac9665f314fcce2f0064736f6c63430008150033",
  "linkReferences": {},
  "deployedLinkReferences": {}
}